:020000040800F2
:100000000050002031010008000000000000000046
:1000100000000000000000000000000000000000E0
:1000200000000000000000000000000000000000D0
:1000300000000000000000000000000000000000C0
:1000400000000000000000000000000000000000B0
:1000500000000000000000000000000000000000A0
:100060000000000000000000000000000000000090
:100070000000000000000000000000000000000080
:100080000000000000000000000000000000000070
:100090000000000000000000000000000000000060
:1000A0000000000000000000000000000000000050
:1000B0000000000000000000000000000000000040
:1000C0000000000000000000000000000000000030
:1000D00000000000370100080000000000000000E0
:1000E0000000000000000000000000000000000010
:1000F0000000000000000000000000000000000000
:1001000000000000000000000000000000000000EF
:1001100000000000000000000000000000000000DF
:1001200000000000000000000000000000000000CF
:100130001748854604E017484FF000510160FEE77C
:100140004FF010001449086044F21500134908608C
:1001500013484FF4C00101600E484FF00051016098
:10016000104840F2413101604FF40B600E490860C5
:1001700042F28C000D490E4801684FF08002114098
:100180008029F8D10B4A4FF062031360F3E70000B7
:1001900000500020101001400010024018100240D2
:1001A0000410014008380140040801400C380140A7
:0801B000003801400438014051
:0400000508000131BD
:00000001FF
